:020000022000DC
:10600000006000205D630200A9630200AB63020030
:10601000AD630200AF630200B16302000000000044
:10602000000000000000000000000000B363020058
:10603000B563020000000000B7630200B96302000C
:10604000158C0200BB630200BB6302000D870200D7
:10605000099C02000000000059930200A18C02007C
:1060600001930200BB63020011930200BB630200B4
:10607000BB630200BB630200BB630200BB630200A0
:10608000BB63020071770200BB630200BB630200C6
:106090000D780200BB63020065840200BB6302004E
:1060A000BB630200BB6302000000000000000000B0
:1060B000BB630200BB6302000000000000000000A0
:1060C00000000000000000000000000000000000D0
:1060D00000000000000000000000000000000000C0
:1060E00000000000000000000000000000000000B0
:1060F00000000000000000000000000000000000A0
:10610000000000000000000000000000000000008F
:10611000000000000000000000000000000000007F
:10612000000000000000000000000000000000006F
:10613000000000000000000000000000000000005F
:10614000000000000000000000000000000000004F
:10615000000000000000000000000000000000003F
:10616000000000000000000000000000000000002F
:10617000000000000000000000000000000000001F
:10618000000000000000000000000000000000000F
:1061900000000000000000000000000000000000FF
:1061A00000000000000000000000000000000000EF
:1061B00000000000000000000000000000000000DF
:1061C00000000000000000000000000000000000CF
:1061D00000000000000000000000000000000000BF
:1061E00000000000000000000000000000000000AF
:1061F000000000000000000000000000000000009F
:10620000354936480A1A02D0072291438D4634494F
:1062100034480A1A06D00722914381F309880222E2
:1062200082F3148830483149314A00F044F831484B
:106230003149324A00F03FF831483249324A00F0E1
:106240003AF832483249334A00F035F83248334997
:10625000334A00F030F833483349344A00F02BF821
:1062600033483449344A00F026F83448344900228F
:1062700000F02CF833483449002200F027F8334866
:106280003349091A082902DB002202604160314AC1
:1062900090471F481F49884205D00268043003B464
:1062A000904703BCF7E700208646EC46002000211B
:1062B000294A9047FEE7884207D0521A05D0037852
:1062C00001300B700131013AF9D17047884202D098
:1062D00002700130FAE7704700600020005800208B
:1062E0000060002000600020F8C80200202200208A
:1062F000AA220020C0630200C063020098BC020012
:10630000F8C8020020220020202200205CBD0200EC
:106310005CBD020060BD02005CBD02005CBD02000D
:106320005CBD020060BD020060BD0200F8C8020052
:1063300084C90200AC220020AC220020AC22002044
:10634000BC350020BC350020C0350020C035002001
:10635000C03D002073630200F97302000C488047BF
:106360000C484FF00701884385460B488047FFF7EC
:1063700047BF0A480A490B4A884207D0521A05D03B
:10638000037801300B700131013AF9D170470000F8
:10639000BD63020000600020C96302005CBD020012
:1063A0002022002020220020FEE7FEE7FEE7FEE795
:1063B000FEE7FEE7FEE7FEE7FEE7FEE7704700BF09
:1063C00000487047B43500205B4B5C4A1B68C3F340
:1063D000423313604FF080430022C3F80C21C3F80E
:1063E0001021C3F838254FF0805203F54043D2F80E
:1063F0000414C3F82015D2F80814C3F82415D2F8F1
:106400000C14C3F82815D2F81014C3F82C15D2F8C0
:106410001414C3F83015D2F81814C3F83415D2F890
:106420001C14C3F84015D2F82014C3F84415D2F850
:106430002414C3F84815D2F82814C3F84C15D2F820
:106440002C14C3F85015D2F83014C3F85415D2F8F0
:106450003414C3F86015D2F83814C3F86415D2F8B0
:106460003C14C3F86815D2F84014C3F86C15D2F880
:106470004424C3F87025324B1B78062B13D1314BC3
:106480001B6819070FD1304B1B6803F0F002302A4C
:1064900003D003F0E003402B05D12C4B2C4A1B68A2
:1064A00003F04F0313604FF08043D3F80024D2076A
:1064B00044BF6FF00102C3F800244FF01023D3F85B
:1064C0000022002A03DBD3F80432002B2FDA214B01
:1064D0000122C3F80425D3F80024002AFBD04FF092
:1064E00010221521C2F80012D3F80024002AFBD094
:1064F0004FF010231522C3F80422164B1A46D3F886
:1065000000140029FBD00021C3F80415D2F8003490
:10651000002BFBD0BFF34F8F0F49104BCA6802F41A
:10652000E0621343CB60BFF34F8F00BFFDE70C4B1E
:106530000C4A1A60704700BF440200103C0500403E
:10654000E00F00F0E40F00F0E80F00F05802001038
:10655000E40E004000E0014000ED00E00400FA0518
:10656000202200200090D00372DF704773DF704755
:1065700074DF704777DF70478ADF70478BDF7047C3
:10658000014B01221A6070470C29002008B50378DE
:10659000012B05D0022B07D0044B01221A7008BD35
:1065A000034803F02DFCF7E70248FAE7D328002060
:1065B000AABE0200BABE020007B50023019301F093
:1065C000C9FE01A9012001F07DFF01A802F02CF80D
:1065D00003B05DF804FB0000B0F5A07F01BF024AE4
:1065E0001368013313607047FC28002038B5054D4F
:1065F000044645F001054FF47A40A847013CFAD122
:1066000038BD00BF80BF02007FB54FF080551B4CE6
:10661000D5F8A820C2F3072242F0C0022270D5F8B4
:10662000A8306370D5F8A460360EA670D5F8A41013
:10663000090CE170D5F8A400000A2071D5F8A45027
:1066400065710F4CEDB2C0B2C9B20290CDE90061E4
:10665000DBB203950B49204604F04AFA21460A486A
:1066600003F0CEFB4FF010230848D3F88010084BFE
:10667000196004B0BDE8704003F0C2BBCD28002013
:10668000D4280020D7BD0200FCBD0200FFBD0200DF
:106690000429002070B592B01B4C59230025ADF899
:1066A00000301826194B02933C22002103A8ADF8B4
:1066B000046004F07AFA04233246294620468DF815
:1066C0000C508DF80F30CDF830D004F06EFA052361
:1066D00023700F4B65601A682575A5810D4D4FF429
:1066E0007A732968534303A840F2712293FBF2F3B3
:1066F0002A1DA36002F062FF224629460648FFF7E2
:1067000033FF12B070BD00BF3C280020E3280020FA
:1067100024220020582200206822002008B5FFF71C
:106720004BFF034B01211878BDE80840FFF71EBF5F
:1067300068220020014B1878FFF71ABF682200205A
:10674000C37A9B0706D490F909008842CCBF002089
:106750000120704701207047F0B52D4B2D4D0646A6
:10676000186885B044798378427801780294047976
:106770000194C07800902848284C03F041FB2A7807
:106780002C2303FB024306F108014A33B01C11F825
:10679000017903F801798142F9D12C2707FB0242E4
:1067A00096F9131082F854101D4803F029FBB369C1
:1067B0001C4893F909102B7807FB034383F8551005
:1067C00003F01EFBB369987A03F0F0FF2B7807FB08
:1067D0000343D86503F0FEFF02460B46124803F060
:1067E0000FFBB3691148D97A2B7807FB034383F871
:1067F000441003F005FBB3690D48197B2B7807FBA8
:10680000034484F8581005B0BDE8F04003F0F8BA2E
:10681000C02800200829002007BE0200B82200205E
:106820002DBE020036BE020042BE02004BBE020078
:106830005BBE020013B54FF080540E48D4F804211B
:10684000D4F80011D3B20193C2F307230093C2F32B
:106850000743120E03F0D4FAD4F80811064803F0E7
:10686000CFFA216E0548626E02B0BDE8104003F019
:10687000C7BA00BF7EBD020097BD0200A4BD0200E2
:1068800008B501F0A5FD034802F000FDBDE8084091
:1068900002F02EBC5CBF02001FB506220523CDE925
:1068A00000234FF0C86302930823ADF80C30074A69
:1068B00007480023694601F0CBFF08B101F09AF9BF
:1068C000034802F037F805B05DF804FB8D6502005F
:1068D00064BF020008B50A4802F058F8094B0021CD
:1068E00019601A6801221A6003F5F833052019604F
:1068F00019681A60FFF77AFEBDE80840FFF7CCBFC1
:1069000064BF0200FC4F00402DE9F84F244B254E98
:10691000DFF8A0B000241C70234B21460746182244
:1069200022481C6004F041F9214AA6F8B84101212F
:1069300011704FF4A6727A4302F1310906F584789A
:10694000A6F8AC41B144B41890444FF0000A0025B9
:1069500084F8445084F8585084F85550C4F85CA02A
:10696000A4F86C50A4F860500F22294604F14500A9
:1069700004F01BF94FF4A6737B43F2182946C2F8C2
:106980000CB0C2F810B0C2F840A048460F222C3418
:10699000F55204F00AF94445D9D1BDE8F88F00BF9B
:1069A00008290020B822002000290020E328002028
:1069B0008C220020000080BF0A4B19880A4B1B88DC
:1069C0005A1E0A4B1B680C3913440122914204DD04
:1069D00013F8010918B90132F8E7012070470020C7
:1069E000704700BF8E220020C8280020C428002045
:1069F00030B50023934205DAC55CCC5CA54203D1D7
:106A00000133F7E7012030BD0020FCE70B4B70B5E8
:106A10004FF4A67404FB01340646453400250622D3
:106A200021463046FFF7E4FF30B90135062D04F169
:106A30002C04F4D14FF0FF35284670BDB822002059
:106A4000094890F900104AB161F07F01C9B249B21A
:106A50003BB141F04001C9B20170704701F07F01C4
:106A6000F5E701F0BF01F7E70929002010B504465A
:106A70000146013C154803F0C3F9052C04D8DFE8B2
:106A800004F0080D10181C2000231A461946184659
:106A90000BE0002201231146104606E000230122EC
:106AA000F4E7012300211A460846BDE81040FFF72D
:106AB000C7BF00231A460121E9E701230022194636
:106AC000EAE7012200231146E1E700BF69BD0200A9
:106AD00038B5174B174C0546B3F9000003F04EFECE
:106AE000154903F061FC03F075FE0DA3D3E9002303
:106AF00003F0CAFC0CA3D3E9002303F02DFA002213
:106B00000E4B03F0B5FB03F027FEC1B20C48217019
:106B100003F076F92846FFF7A9FF207838BD00BFBB
:106B2000EC51B81E85EBA13F1904560E2DB2CD3F96
:106B3000CA28002009290020CD388E4500002440B5
:106B400043BF02001FB50D4A10685168127A01ABAD
:106B500003C300210A481A7002F058F90146094897
:106B600003F04EF901A9032002F094F9014606480A
:106B700003F046F905B05DF804FB00BF60BD0200FC
:106B800070BF0200B1BD0200BBBD020008B50448E1
:106B900002F06EFBFFF7D6FFBDE80840FFF70CBD23
:106BA0005CBF0200F8B5164C164D002323804FF051
:106BB000A0434FF48062C3F80C256420FFF716FD54
:106BC00005262946032002F0BFF93220FFF70EFD0B
:106BD0002B88228813441BB2013E05F10205238055
:106BE000EFD13220052293FBF2F32380FFF7FEFC66
:106BF0004FF0A0434FF48062C3F80825F8BD00BFF2
:106C0000CA280020B4280020054B064A1B681268D9
:106C10009B1A23FA00F04FF47A73B0FBF3F070473D
:106C2000FC280020002900202DE9F04F2F4C304D8A
:106C3000DFF8CCA0DFF8CCB085B081461822002167
:106C4000204603F0B2FF52232370582363704FF0A5
:106C5000000826462F4695F84430DB074CBF95F8D0
:106C6000583095F84530A370B9F1010F08F10108CB
:106C700033D195F85420E270E86D039203F05CFD87
:106C8000039AA178C3B22371584603F0B9F8B8F15A
:106C9000060F05F12C0504F10304DCD1154B1B781C
:106CA0002BB9154B1868FFF7AFFFA7F8B801B7F875
:106CB000AC313375B7F8B831B3751A1248467275EE
:106CC000FFF706FFF0750090B37D727D317D0B48B4
:106CD00003F096F805B0BDE8F08FB5F86C30A178F8
:106CE0001A12DBB2E27023715046CEE7E32800208F
:106CF000B82200208C220020A02200200EBF02001B
:106D0000EDBE0200CABE020010B50F4CB4F8AC31A3
:106D100043FA00F2D20701460ED50122824023EA4F
:106D20000203A4F8AC31094B1868FFF76DFF2C2360
:106D300003FB0143A3F86C002C2303FB0141002358
:106D4000A1F8603010BD00BFB8220020A0220020B2
:106D500010B50E4CB4F8AC2142FA00F3DB07014643
:106D60000DD4012383401343A4F8AC31084B1868B9
:106D7000FFF74AFF2C2303FB0143A3F86C002C23ED
:106D800003FB01410023A1F8603010BDB8220020B0
:106D9000A02200202DE9F04103881D2B05467AD161
:106DA0003E4B3F4A046A00F10B061E603D4B1C60DF
:106DB000838C13803C4A92F8008000F10807B8F1F8
:106DC000000F4CD1394A60791178884231D1A179CC
:106DD000527891422DD1364AE0791178884228D1F3
:106DE000217A5278914224D1324A12889A4220D193
:106DF000FFF7E2FDE8B195F91B102046FFF7A0FC74
:106E0000B8B141463046FFF701FE431C2A4C18D169
:106E10002A4B002238461A70FFF79EFC2078FFF7B5
:106E200097FF237806210133B3FBF1F201FB123304
:106E30002370FFF7A3FB22492248BDE8F041FFF78A
:106E40009BBBFFF785FF2048237800212C24052BCE
:106E5000EFDC04FB03020133A2F86010F7E7144BE8
:106E6000E1791A789142E4D1227A5B789A42E0D1B2
:106E700000213046FFF7CAFD0130DAD13846FFF76E
:106E80006BFC0D490B7806200133B3FBF0F200FBDD
:106E900012330B70CDE7BDE8F08100BFC0280020A1
:106EA000C8280020C4280020CC2800202822002048
:106EB0002A2200208E220020082900208C22002077
:106EC0006C22002074220020B822002010B5044655
:106ED0000146013C0E4802F093FF0720022C03D824
:106EE000DFE804F009101300FFF70EFF0620BDE8ED
:106EF0001040FFF709BFFFF707FF0620BDE810406D
:106F0000FFF726BFFFF724FFF0E7FFF721FFF4E7C5
:106F1000C5BD020038B50D4A054600210C4800F0F9
:106F200001FE4FF400444FF4FA70002100234FF4A7
:106F30007A72C4FB050103F00BFD002201460548EF
:106F400000F002FE044B00221A6038BD8165020089
:106F50006CBF0200742800200C29002008B50348EB
:106F600000F038FE024B00221A6008BD7428002091
:106F70000C29002038B50446FFF71EFBFFF7FEFA88
:106F80000D490E480E4DFFF7F7FA2046FFF7C2FFF6
:106F90000C4C23682BB92B78052B02D800F06EFB24
:106FA000F7E7FFF7EBFAFFF7D9FF4FF4FA70BDE808
:106FB0003840FFF71BBB00BF6C220020742200206A
:106FC000082900200C29002070B51F4E3268002AC5
:106FD00039DD1E4C18220021204603F0E6FD522325
:106FE0002370042258231A496370A01C03F0B4FDD7
:106FF000184AA31D062512F8011B03F8011B013DC9
:10700000F9D1FF236375FC23A3751F23E375FFF7F5
:1070100041FB114B114C1A68114B294613F92220E0
:107020000120FFF7A7FAFFF779FB3068FFF772FF3F
:10703000236813B900F022FBFAE7FFF78FFFBDE8E2
:107040007040FFF777BB70BD9C220020E328002032
:1070500004290020CD280020A42200200C29002093
:10706000342200200000000013B52F4CFFF762FB14
:1070700018220021204603F098FD49232370542351
:1070800063702A4B1B78A370FFF78CFD284BB3F974
:10709000000003F073FB274903F086F903F09AFB25
:1070A0001DA3D3E9002303F0EFF91DA3D3E90023C7
:1070B00002F052FF0022204B03F0DAF803F04CFB01
:1070C0001E4B1F491B7809782371C2B2E2706171AF
:1070D0000091A1781B481C4C02F092FEFFF7DAFAEF
:1070E0001A4B1A681A4B002113F922200120FFF7CE
:1070F00041FAFFF713FBFFF7EDFB164B1868FFF79C
:1071000009FF236813B900F0B9FAFAE702B0BDE845
:107110001040FFF723BF00BFEC51B81E85EBA13F25
:107120001904560E2DB2CD3FE328002090220020F6
:10713000CA280020CD388E4500002440AD22002012
:10714000AC2200206DBE02000C290020A4220020E9
:1071500034220020882200202DE9F74F0020FFF77D
:10716000D3FBFFF7E7FA404B404C1868404EDFF87E
:1071700024B1FFF7FFFE18220021204603F015FD81
:1071800044232370422363704FF00008254637469E
:1071900096F8459096F854A0F06D84F8029084F823
:1071A00003A003F0C9FAC3B2237108F101085246E3
:1071B0004946584602F024FEB8F1060F06F12C06A7
:1071C00004F10304E4D12B4B1B782BB92A4B18682C
:1071D000FFF71AFDA7F8B801B7F8AC312B75B7F86F
:1071E000B831AB751A126A75FFF7DCFC234B244CDF
:1071F000B3F9000003F0C2FA224903F0D5F803F016
:10720000E9FA15A3D3E9002303F03EF914A3D3E967
:10721000002302F0A1FE00221B4B03F029F803F02B
:107220009BFAC0B2E8750090AB7D6A7D297D174856
:1072300002F0E6FDFFF72EFAFFF770FA144B18681C
:10724000FFF768FE236813B900F018FAFAE703B0F5
:10725000BDE8F04FFFF782BEEC51B81E85EBA13FB1
:107260001904560E2DB2CD3F94220020E3280020B1
:10727000B82200208C220020A0220020CA28002052
:107280000C290020CD388E45000024400EBF02009E
:1072900084220020CABE0200F8B5FFF74BFA294B42
:1072A000294C1868294F2A4EFFF764FE0025B4F8D0
:1072B00060202946384602F0A3FDB4F860203388E8
:1072C0009A4202D92846FFF71FFDB4F86030013515
:1072D0000133062DA4F8603004F12C04E7D1FFF748
:1072E00061FC0020FFF7A0FCFFF7D4F9194B1A4C02
:1072F0001A681A4B002113F922200120FFF73AF9EE
:10730000FFF70CFA164B1868FFF704FE25462368B2
:1073100013B900F0B3F9FAE7FFF720FEFFF70AFA16
:10732000FFF7AEFA0F4B1868FFF7F4FD2B6813B99F
:1073300000F0A4F9FAE7FFF711FEBDE8F840FFF707
:1073400025BC00BF94220020B822002051BF0200BB
:10735000A8220020A42200200C2900203422002092
:10736000842200209822002030B50F4C0F4A85B0AF
:107370004FF0C063002502A92046CDE9023501F097
:107380000FFF0B4BD3F810254FF47A510123D2B2E3
:1073900021FA02F200932946204601F09CFF204684
:1073A00001F066FF05B030BD5CBF0200D965020088
:1073B00000A0004008B501F053FB002001F06CFB79
:1073C00000F046F94FF0A0434FF08042C3F80C257F
:1073D0004FF480610322C3F87827C3F808154FF4EF
:1073E0008011C3F82827C3F80C15C3F85027BDE84F
:1073F0000840FFF7B9BF000008B5FFF7DBFFFFF754
:1074000003F9FFF717FA00F05DFBFFF79BFBFFF7AF
:1074100061FA0020FFF778FAFFF7CEF8164B1868EC
:10742000FFF754FDFFF7D0FD144B1B68012B08D06C
:10743000022B0FD0BBB9124802F0E2FCFFF714FE9A
:10744000FCE7104802F0DCFC0F4B00221A70FFF73B
:1074500023FFFCE70D4802F0D3FC0B4B01221A700E
:10746000FFF77AFEFCE70A4802F0CAFCFFF708FAC9
:1074700000F004F9FCE700BFA02200202C2200202D
:1074800086BF020098BF0200CC280020A8BF0200DF
:10749000BBBF0200074B08481A68084B02F16401A1
:1074A0001960074B9A80074A598012680649DA80AA
:1074B00000F0F0B830220020E8270020B42200209D
:1074C00074220020B022002064BF020070B5EFF3E8
:1074D000108672B60C4A946801239CB993600B4BDA
:1074E0000B4DD3F8801029401160C3F88050D3F8B9
:1074F000841051604FF0FF32C3F88420047006B945
:1075000062B670BD0370FAE71029002000E100E0C8
:10751000FC06FFBD084B9A6810B55AB150B9EFF39D
:10752000108172B6054A1C6814605C6854609860EB
:1075300001B962B610BD00BF1029002000E100E0D3
:1075400050E8002F0B4640E8003C9CF0000FF7D1BC
:107550001046704750E8003F43EA010240E8002C23
:107560009CF0000FF6D11046704750E8002F02EA59
:10757000010340E8003C9CF0000FF6D11046704734
:1075800050E8003F03EA010240E8002C9CF0000FA5
:10759000F6D11046704750E8003F03EB010240E887
:1075A000002C9CF0000FF6D11046704750E8003FC9
:1075B000A3EB010240E8002C9CF0000FF6D110462E
:1075C00070470121FFF7C6BF0021FFF7CEBF37B5D7
:1075D000054600240DF107008DF80740FFF776FF00
:1075E0002A686B68116899420ED9481E106011F81C
:1075F000014CEB68298A01FB0434AB6811791B1A32
:10760000DBB2994238BF13719DF80700FFF782FF84
:10761000204603B030BD37B5054600230DF1070005
:107620000C468DF80730FFF751FF2A681368591C84
:107630001160E968641A298AB4FBF1F41C709DF8A2
:107640000700FFF767FF03B030BD41DF7047000060
:10765000064B10B500241C70054B1C60BFF35F8FF8
:107660000449054800F0EEFA204610BD2429002008
:1076700028290020CCBF02001C29002008B500F0FA
:10768000D7FE18B1BDE80840FFF7DFBF20BF40BFFD
:1076900020BF08BD002201604272C2728271704731
:1076A000094A537891780133DBB2994208BF00232D
:1076B000117899421FBF03705078182303FB0020F4
:1076C00014BF0430002070472C29002073B50546F4
:1076D00000240DF107000E468DF80740FFF7F6FE77
:1076E0000DF10600FFF7DCFF90B10670094B9DF825
:1076F000062045605A709DF80700FFF70BFF24B97C
:10770000054B4FF48012C3F80021204602B070BD33
:107710000424F0E72C29002000E100E0024B4FF4A4
:107720003C6043F001031847F0BF020038B50C4B32
:107730000C4C4FF40032C3F8802001254FF4803305
:10774000C4F84833C4F808336560FFF7E7FF064B19
:10775000A56000241C60FFF7E1FF044B1C7038BDDE
:1077600000E100E000100140482A0020392A0020F2
:10777000F8B51F4B1F491B680025C1F84051C1F8DF
:107780004451C1F84851C1F84C51C1F80051C1F8F9
:1077900004514BB3D1F8044517490968641A24F021
:1077A0007F442F461A68A24209D8A41A15441A7CAD
:1077B000DE691AB11F74D3E905209047AEB90F4AAC
:1077C0000F4B11781B788B4205D10133DBB2022BB2
:1077D00008BF0023137012780A4B43F822500A4B5B
:1077E0004FF48012C3F80021F8BD3346DAE700BF3A
:1077F0004C2A002000100140482A0020452A002081
:10780000442A00203C2A002000E100E02DE9F04F4E
:10781000A14AA24913780978A14D994285B03CD07C
:107820000133DBB2022B08BF002313709D4912788D
:107830009D4B0F6853F822003B1823F07F43002232
:107840000B602B6816461446944613B942B12B6060
:1078500006E0196881420ED902B12B60091A19603D
:1078600001272B68DFF848A201934FF00008BEB94A
:10787000DFF844B266E0401A0C44D968C3F800C08F
:10788000D3F81CE031B13A1922F07F42C3E901215B
:10789000DE611E4601227346D7E700263746E0E741
:1078A0003446F6697F4A63681268DFF810C2A06840
:1078B000991A21F07F41614500F2A68001442160C0
:1078C000012222742A680023C4E90133E361002AFB
:1078D00040F0A3802C60CAE75A1C9BF80210D2B279
:1078E00091428BF8002004BF00228BF80020182260
:1078F00002FB03B31A799C68022A1CD0032A12D017
:10790000012A1FD1207CE8B9D3E90312A2605A6989
:10791000E2609A69654BA2611B78002B0CBF0B4695
:1079200003466360BEE700222B681146002B67D137
:1079300042B12B6006E029680A468946002A5AD1DE
:10794000002323749BF800309BF801209A42C3D196
:107950002B68B8F1000F04D1019A9A4201D1002F8F
:1079600043D0002B73D0D3F800A0514D4D4BD5F828
:1079700004751C68DFF848813E1B98F8003026F03B
:107980007F4603369BB94FF48033C5F84433C5F8BE
:107990000433484B4FF400324FF00109C3F8802103
:1079A0001A60C5F80090FFF7B9FE88F80090B2455C
:1079B0002CBF5444A41924F07F44C5F84045D5F8A1
:1079C0000435DB1B23F07F43E41B033324F07F44A7
:1079D000A3420AD9D5F80435C5F84035FFF79EFE15
:1079E000344B4FF40032C3F80021304B00221A70A0
:1079F00005B0BDE8F08F94422CD09146D2699DE746
:107A000019740122DB6991E7D31A23F07F43834283
:107A100034BFC31A0023236052E7216813689942D8
:107A200013D8591A1160E26154E7091AD8691A4645
:107A300038B1034618688842F7D3401A18601846D0
:107A400013462160E061DC6111E71346F2E7FFF7BE
:107A50006DFECAE74C4511D1CB692B6073B9DFF8D5
:107A600044E00120CDE90212CAF80800CEF8003047
:107A70000E4B1870FFF752FEDDE902121368D2694F
:107A8000C9F81C2012B11068034413602B68994296
:107A900018BF4FF0010853E7442A0020452A002070
:107AA0004C2A0020482A00203C2A0020382A0020A6
:107AB0000010014000E100E02C290020FEFF7F00C3
:107AC000392A002008B5FFF731FE104B00200B22A9
:107AD00018809A700E4B18600E4B18700E4B187071
:107AE0000E4B4FF48012C021C3F8802183F8141389
:107AF0001A6002F18042A2F56F22C2F8080583F8ED
:107B00001113074BD2F804251A6008BD2C29002058
:107B10004C2A0020442A0020452A002000E100E0F1
:107B2000482A0020074B9B784BB132B128B103683B
:107B3000187C20B959745A61704707207047082093
:107B4000704700BF2C2900202DE9F7431E4FBB785A
:107B500005460E469046A3B398B304292FD943692E
:107B60007BB3437C0024012B0DF107000CBF894639
:107B7000A1468DF80740FFF7A9FC0DF10600FFF7BD
:107B80008FFDD0B101230370104B4560D3F804354D
:107B9000C0E90498C0E902369DF806307B709DF874
:107BA0000700FFF7B7FC24B9094B4FF48012C3F864
:107BB0000021204603B0BDE8F0830424EFE707244A
:107BC000F7E70824F5E700BF2C290020001001404A
:107BD00000E100E0064A92783AB130B1426922B140
:107BE000002202740221FFF771BD0820704700BF18
:107BF0002C2900201FB50021039001AA44F20100A6
:107C0000CDE9011100F004F805B05DF804FB0000B7
:107C100072B6094B1B68DB0700D500BEBFF34F8F60
:107C20000649074BCA6802F4E0621343CB60BFF316
:107C30004F8F00BFFDE700BFF0ED00E000ED00E07A
:107C40000400FA050B684A684360934208BF0023AA
:107C5000016008BF43607047436843B102689168A0
:107C600052680B449342436004BF00234360704753
:107C7000037813F0040216D003F00303012B03D0A2
:107C8000022B09D0012070470A6800880232C0F335
:107C9000831002440A60F5E70B684288023303EB65
:107CA00092130B60EEE71046704700002DE9F04F8D
:107CB00087B000230446851C0DF107000F4690464F
:107CC0008DF80730FFF702FC454806683E60D0E9B2
:107CD0000132134401339B1B824600F21C4600F51F
:107CE000836900F21447AB421BD30022B8F1000FA6
:107CF00070D0052363F3070264F38912DAF80010E9
:107D0000DAF808309DF807000B4003330D444AF8B9
:107D10002320CAF80050FFF7FDFB012007B0BDE8A3
:107D2000F08F01213046FFF736FC4846FFF749FC4B
:107D30003846FFF746FCDAF80400DAF808B002909B
:107D400000EA0B0003300AEB800002A9FFF790FF66
:107D5000029B50BB0BEA03020AEB820203F1020C06
:107D6000D2680392013303EA0B0B0AEB8B0B02F090
:107D70000302012ACDF808C0DBF80C1022D0022A39
:107D800016D083463846FFF71FFC10B1029BCAF895
:107D9000043059463046FFF7FEFBDAE9012313446D
:107DA000DAF8002001339B1A9DE70BEA0300C9E7CC
:107DB000BDF80E309B0903334FEA114B0CEB9303D4
:107DC0000293DFE7BDF80C30C3F383134FEA114B86
:107DD0006344F5E7062363F3070264F39F528DE7DC
:107DE000202B0020034BD3E90030C31A58425841DE
:107DF000704700BF202B00202DE9F04387B0FFF72C
:107E0000F1FF0646002840F0FB807E4DC5F81804BF
:107E1000BFF34F8F6868AC6802902040033005EBD9
:107E2000800002A9FFF724FF029B18B1D5F818249F
:107E3000002A5FD004EA0302991C013305EB820299
:107E4000234005EB8303D268DB68049302F003034D
:107E5000022B0392029162D1BDF80E306A484FEABC
:107E60009318B8F1500FC14628BF4FF0500969F37D
:107E70008F1309F10801ADF80E3000F095F90746AF
:107E8000002800F0A88000F0BEF903A90023082212
:107E9000384600F0CBF9029924EA01060136B60013
:107EA000B14535D95FFA89F97EB3F6B2A9EB060977
:107EB000214003315FFA89F4B146544E05EB81014C
:107EC00008234A46384600F0B1F936B109F10803F3
:107ED00022463146384600F0A9F9029B08F1030812
:107EE00003EB98030293D5F81834002B4BD1D5F847
:107EF00010445BE02A689A4204D86A60304607B0B2
:107F0000BDE8F08304EA030088E740493446D7E738
:107F10002140033108234A4605EB8101DAE7012BB2
:107F200059D1BDF80C303848C3F38311062928BF56
:107F3000062161F3891302318900ADF80C3000F09D
:107F400033F90746002846D000F05DF900230822E7
:107F500003A9384600F06AF90026BDF80C20C2F3E8
:107F60008312B300964203F10803BCD202994A1C63
:107F700021400331029205EB81010422384600F0D2
:107F800055F90136E9E7384600F041F9FFF72AFFD5
:107F900080F00100C6B2B1E7E3685B7923B12368E2
:107FA00039461B6820469847E3681C68002CF3D1CB
:107FB000384600F02CF90DF107008DF80740FFF767
:107FC00085FAD5F818340BB9029B6B609DF8070051
:107FD000FFF7A0FADAE7D5F8104454B90C4B0D4876
:107FE0000D49C01AC008000440F0020000F06EF80D
:107FF000CCE7236820469B689847E3681C68ECE759
:1080000000267BE7202B002030BD02002C2B002017
:10801000B8BC0200F0BC0200F6BF02002DE9F74F29
:10802000284C80460F46924601A9012218469B46DD
:10803000D4F80890FFF73AFE80B3019D0026A91CF2
:108040005E4506EB010233D100211F48FFF778FAA5
:1080500080F310006A1C02EA090204EB82020004A9
:1080600005EA0903033340EA1840D06014F82320DE
:1080700068F3C50204F8232034F8232066F389123C
:1080800024F8232054F8232067F39F2244F8232068
:1080900002F0F80242F0010204F8232094F82034A0
:1080A0001BB1FFF7A9FE0028FBD103B0BDE8F08F9C
:1080B00009EA020204EB82025AF82630D360013644
:1080C000BEE700BF202B00203C2F002000231A46D3
:1080D000FFF7A4BF07B50123019201AAFFF79EFF96
:1080E00003B05DF804FB07B5CDE9002302236A461F
:1080F000FFF794FF03B05DF804FB2DE9F047B0F8FB
:1081000006904479D2F800A09DF8208009FB04F481
:10811000043C06460AEB0300A0420F4688BFA4EBCE
:10812000030A191DC2F800A0B1FBF9F509FB1511EE
:108130004DB9A9EB0104544528BF5446BAF1000FCC
:1081400004D1BDE8F0873668013DF1E704317B19C1
:1081500070182246B8F1000F0ED001461846AAEB5F
:10816000040A02F0F9FCD145254436684C464FF02C
:10817000000128BF5446E1E71946F0E7F8B5467913
:108180000146721E0546002393422D6803D3002446
:10819000A64202D8F8BD0133F6E70F682846FFF77C
:1081A0003AFA01343946F3E72DE9F843068ACD1C43
:1081B0000746FFF70CFA043E35440446B5FBF6F5D6
:1081C000F0B14FF48073EDB28380C680013D07604B
:1081D00081464FF00008A84512D23846FFF7F7F95C
:1081E000064648B163790133637108F10108C9F8A3
:1081F000000007608146EEE72046FFF7BFFF3446E8
:108200002046BDE8F88301210430FFF7C4B910B55A
:10821000012104460430FFF7C9F910F0FF0F04D123
:108220002046BDE81040FFF7A9BF10BD1FB503925F
:108230000022009203AAFFF760FF05B05DF804FB7F
:1082400010B50D49A1F59472914201D800200FE0BC
:108250008B1ADB1003EBD3735B1002EBC30452F8F1
:108260003330834205D802D204F10802ECE760689B
:1082700010BD2146E8E700BF48C1020008B5FFF77E
:10828000DFFF024B002808BF184608BD0BC00200E4
:10829000007800F00100704710DF704711DF704771
:1082A00013B5044609496846FFF7CCFC019808B9A4
:1082B00002B010BDD0E900312046984718B1684699
:1082C000FFF7CAFCF2E71120F2E700BF1CC502006D
:1082D00013B5044607496846FFF7B4FC019B0BB988
:1082E00002B010BD2046D3E9002190476846FFF751
:1082F000B3FCF3E734C50200064B9A6822B11A6852
:1083000022F480021A607047034B4FF48002C3F8D6
:10831000802070471029002000E100E00B4991F80F
:1083200016335A09EC231341DB0706D5084B9A682C
:108330003AB94FF480030B60704742F20200FFF736
:1083400059BC1A6842F480021A60704700E100E0EC
:1083500010290020F7B5194F3C7864BB184E012551
:1083600020463570FFF79CFF112821D02046FFF7EB
:10837000AFFF144B8DF80340186801900DF1030016
:10838000FFF7A4F8104901A8FFF786FF0446B0FAEA
:1083900080F0400938709DF80300FFF7BBF83CB946
:1083A0000A4B34701C70FFF7B9FF2846FFF790FFA7
:1083B000204603B0F0BD0824FAE700BF452F002097
:1083C000442F002017C50200117C0200462F002018
:1083D000F7B5154F3B781BB3144E01203070FFF7F3
:1083E0005FFF11284FF000051CD00220FFF770FF3F
:1083F0000DF107008DF80750FFF768F8FFF74EFF03
:1084000004469DF807003D70FFF784F82CB93470DE
:10841000FFF772FF0320FFF75BFF204603B0F0BDBC
:108420000824FAE72C46F8E7452F0020442F0020C7
:10843000014B1878704700BF452F002007B5084949
:108440006846FFF7FFFB019B13B903B05DF804FB1F
:10845000D3E9002090476846FFF7FEFBF3E700BF33
:1084600028C50200FFF7EABF60DF704769DF704789
:1084700061DF704730B5114B1B7891B0E3B1104DFF
:1084800034240DF1020103A8ADF80240FFF7F0FF1C
:1084900070B9294601A8FFF7D5FB029B002BF0D04D
:1084A00003A8D3E90021904701A8FFF7D5FBF4E723
:1084B000052801D0FFF79EFB11B030BD472F0020EB
:1084C00074C7020030B5054685B00C46002900F09F
:1084D00098804D4B0B600C22002101A802F065FB37
:1084E00001238DF8063022688DF80450062301A977
:1084F0002020ADF80830FFF7B9FF60B1FFF7BEFEEE
:10850000424A434B43499B1ADB081B04024643F093
:108510000100FFF7DFFD0C22002101A802F045FB5E
:1085200001238DF805302268002301A94020ADF811
:108530000630FFF79BFF60B1FFF7A0FE334A344BD4
:1085400035499B1ADB081B04024643F00100FFF784
:10855000C1FD0C22002101A802F027FB01202268A6
:108560008DF8040001A9FFF781FF60B1FFF786FED7
:10857000264A274B29499B1ADB081B04024643F075
:108580000100FFF7A7FD0C22002101A802F00DFB5E
:108590004FF4B0632268019301A9A120FFF766FFA1
:1085A00060B1FFF76BFE194A194B1D499B1ADB0896
:1085B0001B04024643F00100FFF78CFD0C22002152
:1085C00001A802F0F2FA9DF80430226843F001039A
:1085D00001A9A0208DF80430FFF748FF034668B1D9
:1085E000FFF74CFE094A0A4B0E499B1ADB081B0495
:1085F000024643F00100FFF76DFD0023184605B069
:1086000030BD0E23FAE700BF20220020B8BC0200D4
:1086100018BD020048C502008EC50200DAC502007E
:1086200026C6020077C60200F8B506460768FFF7BF
:108630001BFF3368BB4205461DD9194B194C1A491B
:10864000E41AE408240444F002042046FFF73EFD47
:10865000336816493A462046FFF745FD4FF08053F0
:108660003268D3F80C3112499B0203F100539A1A75
:108670002046FFF72FFD25B90E4B01221A70284620
:10868000F8BD2846FFF7FAFD054A064B0A499B1A32
:10869000DB081B04024643F00100FFF71BFDEEE779
:1086A000B8BC020018BD0200CAC60200F9C602002A
:1086B0002AC70200472F002054C702004BDF704733
:1086C0001FB50D4C01A8FFF7F9FF70B9214602A8AC
:1086D000FFF7B8FA039B002BF4D00198D3E90021EF
:1086E000904702A8FFF7B8FAF4E7052801D0FFF792
:1086F00081FA04B010BD00BF8CC7020000234350B4
:1087000082B043580193019B02B07047F0B54C4AC8
:108710004C4CD2F8243187B01546A3B14FF4927176
:108720001046FFF7EBFFD2F8043163B9A368C2F833
:1087300008330223A360A368C2F804330123136241
:10874000536107B0F0BDD5F80431002B49D03E4F3E
:108750003B484FF48271FFF7D1FF0FCF01AE0FC638
:108760003B68336094F82E307BB1237B012B0CBF28
:10877000D5F83C25D5F84C250292022B304B0CBF86
:10878000D3F83C35D3F84C3503934FF4B0712C48F3
:10879000FFF7B4FF4FF4AE712948FFF7AFFF94F82D
:1087A000303013B194F82E303BB1254B0022C3F882
:1087B0000022A260254AC3F80823214AD2F8C43413
:1087C000C2F8C4349A0736D501238DF8003094F8E6
:1087D00030300BB984F82F30D4E90031684698471F
:1087E000AFE74FF4A4711648FFF788FF237B83B9E6
:1087F000154F0FCF01AE0FC63B68336094F8303091
:10880000002BDAD1C5F80032A360104BC5F808334D
:10881000D3E74FF40073C5F8003240F20223A3609F
:1088200003F1CE73C5F80833A368C5F804330123F8
:10883000AB602B6285E713F0040318BF0223C4E783
:1088400000300040482F0020542F002002029C01DD
:108850002DE9F84F0579334C4FF0340808FB05F843
:1088600004EB08069B4696F82D3081460F4692464B
:10887000002B52D12C49006800F0C4F800284ED1DA
:1088800039687B7B86F8323001F5E0724FF0A04307
:10889000B060C6F804B086F82F0086F830004FF4B8
:1088A000C06644F808A043F822607A6802F5E07CCC
:1088B00043F82C60D9F80030C3F80815C3F80C252C
:1088C000BA68C3F82425BAF1000F1ED01B0B59B2A9
:1088D00000293A7BB4BF154E01F16046DBB2B8BF48
:1088E00003F00F074FEA4212A8BF06F56146D2B265
:1088F000B4BFF25586F8002303F01F03012202FAE9
:1089000003F349090A4A42F82130342303FB0544A2
:10891000012384F82D30BDE8F88F0820FBE71120F3
:10892000F9E700BF482F00200D87020014ED00E09A
:1089300000E100E0026803790621C2F80015044A4C
:10894000342101FB0323022283F82D20704700BF4E
:10895000482F002003790B490268342000FB0313E1
:10896000002009499860C2F80813D2F8001221F4D7
:10897000BC51C2F80012C2F80005012283F82D2074
:10898000704700BF482F002002029C0170B5047997
:108990001A4D342363430646EB5863B103681B0B3F
:1089A0005AB20121520903F01F0301FA03F32032E6
:1089B000134941F822303046FFF7CCFF306800F011
:1089C00023F8342303FB045393F832307BB9306827
:1089D000D0F808354FF0A04203F5E073022142F8C9
:1089E0002310D0F80C3503F5E07342F8231034233C
:1089F00003FB0454002384F82D3070BD482F002061
:108A000000E100E0002070477047000038B5074CD7
:108A1000051E04F1080318BF1C4623682BB11A6811
:108A200022605B6828469847F7E738BD842F00200E
:108A300020B9054B01225A70FFF7E8BF012802D187
:108A4000014A9070F8E770477C2F002020B9034B53
:108A500001225A70FFF7DABF704700BF7C2F002059
:108A600038B50B4C237883B90A486360A36023614F
:108A7000E36000F095F80546FFF7DAFC08B900F06E
:108A80009DF801232370284638BD8525FBE700BFEC
:108A90007C2F0020318A020037B5184CA378054698
:108AA00003F0FF029BB110B14368012098470023F7
:108AB0000DF107008DF80730FEF708FDE3689DF81B
:108AC00007000133E360FEF725FD03B030BD0DF173
:108AD00007008DF80720FEF7F9FC25B1226913463F
:108AE0003BB92A602561E368002BE7D100F078F8F4
:108AF000E4E79D42F7D01B68F2E700BF7C2F00201F
:108B000037B50B4C00230DF107008DF80730FEF749
:108B1000DDFCE368013BE360E56815B900F06EF841
:108B2000A5709DF80700FEF7F5FC03B030BD00BF4F
:108B30007C2F0020012813B509D018B103281CD0C0
:108B400002B010BD0F4B0122C3F88020F8E70E4C95
:108B500000230DF107008DF80730FEF7B7FC2378EE
:108B60000BB9FFF77DFFE3689DF807000133E36071
:108B70000123A370FEF7CEFCE2E700F01FF8FFF739
:108B8000BFFFDDE700E100E07C2F002000F1804026
:108B9000002382B0036003680193019B02B0704719
:108BA000054A13792BB90121106093719180184601
:108BB00070478520704700BF902F0020074B1A6830
:108BC000D2075FBFE02283F8002301221A604FF032
:108BD00080430022C3F81825704700BF00E100E081
:108BE00008B54FF48270FFF7D1FF4FF080430222A7
:108BF000C3F8042301229A6008BD0000044B01223F
:108C00001A604FF08042D2F81834DB03FBD470476F
:108C10000C00004070B51A4C4FF48070FFF7B6FF9F
:108C20004FF0804260790123C2F8083310B92268FE
:108C3000637190474FF0804502264FF48270FFF732
:108C4000A5FF2368C5F80863012098474FF4887092
:108C5000FFF79CFF1023C5F8083330462368984778
:108C6000084B00221A604FF48670FFF78FFF08232D
:108C7000C5F808330320A2712368BDE87040184787
:108C8000902F0020340C004000F1804000F5E040BF
:108C9000002382B0036003680193019B02B0704718
:108CA000F0B5534B534C1B6885B0002B3DD04FF4AF
:108CB000827094F82E20FFF7E7FF2AB394F82F3044
:108CC00013BB4D4B1B68002B33D04FF48070FFF764
:108CD000DBFF94F82D20638B91B28B424ED95B1A47
:108CE00021899BB26383CB1A616801EB4301434B3B
:108CF000C3F82C16C3F830264FF48270FFF7C4FF78
:108D00003F4B01221A6014E0636802932389ADF897
:108D10000C30E36800218DF8041023BB2374236812
:108D200001A89847002384F82F3094F82E30002BA8
:108D3000C7D1344B1B685BB14FF48870FFF7A4FFB9
:108D40000023237402238DF8043001A82368984778
:108D50002D4B1B6813B34FF48A70FFF795FF002368
:108D6000237405B0F0BD208B608363602081E160D7
:108D7000002AD4D1214B01221A60D0E7BCD1E3688C
:108D8000012184F82F103BB1002161831B49C1F8F8
:108D90002C36C1F83026AFE76383ADE766694FF044
:108DA00000470125002EDCD0B6FA86F227FA02F33E
:108DB0004632920026EA030602F1804303F5E043BF
:108DC0001B68002BEED01046FFF75EFFA2F58C72F9
:108DD000D30882F00402C2F380028DF808308DF8C7
:108DE00004508DF80920236801A89847DAE700BFEE
:108DF00004710040982F0020007100400070004076
:108E000004700040107100401471004038B51E4BD2
:108E1000044693F82C00A8BB1C4A19602178C2F8BC
:108E2000F0156178C2F8F415E5781874012183F81B
:108E30002C1083F82D00586183F82F0083F82E50F2
:108E40006FF00043C2F808334FF48270FFF71CFF45
:108E50004FF48070FFF718FF4FF48A70FFF714FF8C
:108E6000A3780B485B01DBB280F8073380230360F3
:108E70000223C2F804330DB1C2F80413C2F800157E
:108E8000002038BD0820FCE7982F0020007000402B
:108E900000E100E02A4B1A7C70B502F0FF05002AC1
:108EA0004BD10A79012A9CBF264CC4F8005500F129
:108EB0000C0503EB4504247924B993F82D400134C3
:108EC00083F82D4003EB4503CC790D7A8E781C7125
:108ED0005D714B7836021B0106F4E06603F0300347
:108EE00033430E7806F003063343CE78360306F498
:108EF00080563343160406F4E02633434E798979CD
:108F0000360506F480160906334301F080710B43E1
:108F10000C4901EB0016000100F1804000F5E04033
:108F2000012AC6F81835C0F81455C0F8104502D803
:108F30000123C1F80035002000E0112070BD00BF02
:108F4000982F002000700040344A70B5147C04F063
:108F5000FF03002C5FD1324C012503261574C4F8A1
:108F60000863C4F82C16C4F8305692F82D10A942A4
:108F70000CD91C46190101F1804101F5E041013392
:108F8000082BC1F81445C1F81045F3D100F10C03CA
:108F9000000102EB430300F1804000F5E040197945
:108FA0005B79C0F81435C0F810151D4901230B601A
:108FB0004B6042F2107301F58271086808B9013BF9
:108FC000FBD14FF48070FFF75FFE4FF48270FFF724
:108FD0005BFE92F82D30012B11D9104800210B01B6
:108FE00003F1804303F5E0430131047F457FC3F87B
:108FF00014550829C3F8104500F10200EFD192F88A
:109000002E10074B29B103210020C3F8041310745C
:1090100070BD0221F8E71120FAE700BF982F002069
:1090200000700040F0B51B4F8BB207EB001443EA11
:109030000243C4F81C35184B40005C6900F1010C78
:109040004FF0004611F5006F26FA0CF64FF0800540
:1090500005FA00F50BBFB44334435C615C610CBF9F
:10906000C7F80853C7F8045340244FF00045596926
:10907000844025FA00F040F2FF75AA42054A0BBF72
:1090800081430143596159610CBFC2F80843C2F8DA
:109090000443F0BD00700040982F0020124B1A7C52
:1090A00010B5F2B900F10C0103EB4102127922B1C3
:1090B00093F82D20013A83F82D2003EB410300247F
:1090C0009C80030103F1804303F5E04340F2FF720B
:1090D000C3F814450549C3F81045FFF7A3FF204620
:1090E00010BD1120FCE700BF982F002000F8FFFF03
:1090F00038B5134B6FF00042C3F80823114A8021A2
:10910000C2F88010104A01211160104942F2107219
:10911000086808B9013AFBD10D4D0024C3F8004599
:109120002C7405EB44031B7F13B1E0B2FFF7B6FFCD
:109130000134082CF5D1002385F82C3038BD00BF50
:109140000070004000E100E0087000401471004031
:10915000982F00202DE9F743002406460F4600F51E
:10916000A0754FF48038A146A0002B6800F5A070D0
:1091700080B26BB1D6F8043308FA04F21A4207D071
:10918000C5F800902B680193019BD7E900319847FF
:109190000134042C05F10405E6D103B0BDE8F083E9
:1091A000F7B506792F4D0C237343EF183C7A002C4A
:1091B00055D1EA504B687B60477903682246D0B2AC
:1091C000874243D81A0B54B2C878002CA8BF04F1C8
:1091D0006047D2B2BABF02F00F0C234F07F56147C8
:1091E0004FEA4010C0B2B4BF07F80C0087F8000384
:1091F0006409012002F01F021C4F00FA02F247F836
:1092000024204A78D3F8044502F0030224F0030432
:109210002243C3F80425D3F808458A7824F00304D0
:1092200002F003022243C3F80825D3F810450A7858
:1092300024F00F0402F00F022243C3F810250C2380
:1092400003FB06552872002003B0F0BD900000F526
:10925000A07001321C50185801900198AFE7082007
:10926000F2E700BFC82F002014ED00E000E100E0AD
:10927000036801221A600379034A0C2101FB0323CE
:1092800002221A72704700BFC82F002003680449E9
:1092900001221A6103790C2000FB03131A72704734
:1092A000C82F002037B54FF480348C4000687BB164
:1092B00001F150039B000025C550C3580193019B49
:1092C000C0F8044301F5A87140F8212003B030BD77
:1092D000C0F80843F6E770B4046840F20116D4F809
:1092E00000528E4025EA0605C4F80052D4F8005218
:1092F0002B43C4F800329DF80C3070BCFFF7D2BF8E
:1093000001490248FFF726BFC82F00200080004017
:1093100001490248FFF71EBFD42F002000A00040E3
:1093200000F1804000F5C040002382B00360036874
:109330000193019B02B07047800000F1A040D0F87B
:10934000003723F44033C0F80037D0F8003743EA41
:109350000141C0F8001770472DE9F04385B00024A3
:10936000564D01944FF48072012102F1804303F5C0
:10937000C04390B21B68012B06D1D5F804330B42D1
:1093800002D0FFF7CDFF0C430432B2F5907F4FEAD5
:109390004101EAD14A4B1B68012B0AD14FF4BE7040
:1093A000FFF7BEFF4FF0A04344F00044D3F8103560
:1093B000019314F0FF0F1AD0424F002501263442CA
:1093C00010D0AB0003F1804303F5C043D3F8100580
:1093D000D3F8101557F8253023B1C1F30141C0F37C
:1093E000042098470135082D4FEA4606E7D1002CA6
:1093F00061DA00224FF0FF33CDE90223DFF8C480A9
:10940000012702AE98F94430DAB2013322F0C004E9
:1094100051D004A94FEAD40C01EB0C0002F0070371
:1094200010F8041C07FA03F3194244D008EB0401B6
:10943000920991F9241058F821503DB9032A3AD1E4
:1094400016F80C10194306F80C1001E0032AF7D0A7
:1094500004F5E0714FF0A04C10F80C0C5CF82110F2
:109460001842C1F3014105D0022924D1032A20D199
:10947000114604E003291ED1032A1AD102212046F5
:10948000FFF75AFF3DB14FF0010911462046A847AA
:10949000B9F1000F0FD04FF0A043019AD3F8103567
:1094A000934208D00193029B0393ABE74FF000096E
:1094B000EBE7002DFAD105B0BDE8F0830060004075
:1094C0007C610040E02F00206DDF704779DF70473E
:1094D0007DDF704764DF70472DE9F04F85B00025D0
:1094E0000E9CBDF83CB027880191804691469A4673
:1094F0002E46B8F80020B2420CDC3DB12288013A79
:10950000D21B92B2FF2A3BD80AF80720002005B0F0
:10951000BDE8F08FD8F8042052F82600039000220E
:109520000DF10B0103A8FFF7D5FF0028EFD19DF83F
:109530000B204A4522D12288002D14BF0020022092
:1095400002EB0901014459451ADC45B9013292B2D6
:10955000019B22800AF80230228801322280228870
:109560000DF10B01524403A8FFF7B4FF0028CED140
:1095700021889DF80B200A44228001250136B8E796
:109580000C20C4E72DE9F341089CBDF82450174690
:10959000CDE90045022206469846FFF79DFF50B9E7
:1095A0004346102239463046CDE9084502B0BDE8B1
:1095B000F041FFF791BF02B0BDE8F0812DE9F04F17
:1095C00000231688138090F82D3085B007460D468D
:1095D000144653B3082E01D80C2027E102A8FFF748
:1095E00073FF002840F0228123880822EA54238850
:1095F00001339BB21B222380EA542088013080B2C1
:10960000208006220DF10901284401F0A5FA2388E3
:109610009DF8082006339BB212F0FE0218BF01220B
:109620002380EA54238801332380BB78FBB123884D
:109630000433B342D0D802A8FFF748FF002840F017
:10964000F58023880322EA54238801339BB2192230
:109650002380EA542388BDF8082001339BB2E9181F
:109660002380EA54120A4A70238802332380FA784E
:109670009AB12388D91CB142AED80221E95423887B
:1096800001339BB201212380E95423880B449BB210
:109690002380EA5423880B4423807A68AAB1238864
:1096A000D91CB14298D8022192F90020E9542388AC
:1096B00001339BB20A212380E954238801339BB2F2
:1096C0002380EA542388013323803B89002B40F018
:1096D000A1803B8A5BB1CDE900462B4607220321DE
:1096E00007F11000FFF74EFF002840F09F803B8BF2
:1096F0005BB1CDE900462B461522142107F1180075
:10970000FFF740FF002840F091803A6A002A40F0BD
:109710009080D7F82480B8F1000F30D0B8F804302A
:109720002188981C8A1C0244B2423FF655AFFE289D
:109730003FF652AF03336B54238801339BB2FF22B1
:109740002380EA54238801339BB22380B8F8002099
:10975000EA54E918120A4A702088023080B2208048
:10976000B8F804205AB1D8F8081000296BD0284462
:1097700001F0F2F92388B8F804201344238097F805
:109780002C30002B40F09A80387800284ED03B884F
:10979000012B58D0228802F1020CB4453FF61CAFD1
:1097A000012805D17B78023313449E42FFF414AFA5
:1097B000023EB61AB6B202A905EB0C00ADF808607D
:1097C000FFF786FE90BB3978BDF80820022900F02B
:1097D000BA807B78934202D3B24240F2B280012930
:1097E00040F0B3809BB29E42C0F0AF80ADF808302D
:1097F0000821BDF80830FE2B3FF6EEAE228801337B
:10980000AB542288013292B22280A9542288134498
:1098100023800BE0CDE900462B460622022107F10A
:109820000800FFF7AFFE00283FF453AF05B0BDE8D6
:10983000F08FB4F800C00CF10603B3423FF6CCAE93
:109840001188052901D80720F0E76FF4486E01EB75
:109850000E039BB24FF27D3E7345F4D95388052B1E
:10986000F1D96FF44860181880B27045EBD94FF603
:10987000FF70814203D0834201D09942E3D805238F
:1098800005F80C30238801339BB212212380E95460
:10989000238801339BB223801188E954E818090A10
:1098A0004170238802339BB223805288EA54E9181E
:1098B000120A4A702388023323802AE7BB6A002BEE
:1098C000C1D04FF000094FF00C0A4FF0160B97F87B
:1098D0002C305FFA89F293427FF656AFB96A0AFBE1
:1098E00002F201EB0208B8F80430981CFE283FF69B
:1098F00073AE208803332B54238801339BB223801B
:1099000005F803B0238801339BB223808A5AEA54B6
:10991000E918120A4A702088023080B22080B8F814
:1099200004205AB1D8F8081000298CD0284401F03E
:1099300013F92388B8F804201344238009F101099E
:10994000C5E7092155E7B242FBD9ADF808604FE7FA
:1099500073B50191019C06466CB100252C46294641
:1099600001A800F088F818B106EB440301349D808B
:109970000135142DF3D13046346002B070BD0000C3
:109980002DE9F04703888488112B8CB006463CD023
:109990001A2B3FD0102B17D1274DAB68DB43009318
:1099A00069686846FDF7ECFD009901A8FFF7D0FF54
:1099B0000DF108094FF00008019B984507D3132CBF
:1099C00013D90420FEF716F90CB0BDE8F08739F87A
:1099D00002AB00270137514605EB870000F041F844
:1099E0001D2FF7D108F10108E6E72146134800F0E2
:1099F0002FF82146124800F02BF8F37B012BE3D01F
:109A00001048214600F024F8DEE70C48214600F01B
:109A100028F8D9E7057A0C482D09012D214606D9E9
:109A200000F016F8022D21460848F0D0EAE700F0D1
:109A300018F821460548EAE72C3000203430002091
:109A400030300020383000203C30002040300020F2
:109A500001F01F024B090121914000EB8300FDF74B
:109A600079BD01F01F0301229A404B0900EB8300EE
:109A7000D143FDF785BD4B0901F01F0150F82300CC
:109A8000C84000F001007047034B1A8882420CBFA7
:109A900018460020704700BFC0300020024B9B6971
:109AA00003B11847704700BFA430002013B50B4620
:109AB000497A0F4C024669B9D4E901101C7A002C8E
:109AC00018BF01465868FEF73FF808B1FFF7E6FFF8
:109AD00002B010BD002119726369002BF8D001217A
:109AE000ADF806008DF8041001A89847F0E700BF14
:109AF000A43000204B8802889A4213D842889A42A8
:109B000010D380888A8840F2F313984294BF031AD6
:109B1000C31A934206D800F2F310904234BF0020DB
:109B200001207047002070470388112B70B5014653
:109B300048D002D8102B1ED070BD122B52D0502B03
:109B4000FAD12F4BC288DB899A42F5D1038A022BC6
:109B5000F2D186883046FFF797FF05460028EBD004
:109B600001F11200FEF794FB30BB6868FEF732F893
:109B70000028E1D009E0C37B012BDDD14FF6FF7057
:109B8000FFF782FF054620B90420BDE87040FFF7CB
:109B900085BF1C4A8E880680002303721368C5F8AF
:109BA0000A300A30536843601031FFF7A3FF144BAB
:109BB0006872DB89002BBFD129463046BDE8704072
:109BC000FFF774BF8088FFF75FFF04460028B3D01B
:109BD0004068FDF7FFFF08B1FFF760FF4FF6FF7326
:109BE0002380A9E786883046FFF74EFF0546002808
:109BF000A2D008310A30FFF77DFF6872DCE700BFB2
:109C0000A4300020D43000204FF0402382B0D3F89D
:109C10001831E3B10F4B00221A601B680193019BBE
:109C20000D4BD97FFF2907D0987F01228A404FF042
:109C3000A04148B1C1F80C2500225A771A72D3E925
:109C40000021064802B01047C1F80825F4E702B029
:109C5000704700BF18410040DC300020E430002095
:109C60000369C1688B429DBF8268D21802F1FF323E
:109C700003F1FF3394BF501A581A70472DE9F04191
:109C8000D0E9027405463E1B40689642204488464F
:109C9000144404D900F060FFEC60BDE8F081324666
:109CA000E41B00F059FF224608EB06016868F1E763
:109CB0002DE9F843C5680646894617464FF0000867
:109CC0003469B3687068A54228BFE418013C621B80
:109CD0005C1BBC4228BF3C46944228BF1446494600
:109CE0002844224600F038FFB3682544AB4208BF41
:109CF00000253F1BA044A144F560E1D14046BDE8EA
:109D0000F883000010B5114C114AA2610323C4E985
:109D10000433104BE36122664FF480630E4A2362E2
:109D20006266002310220D49A362E01D6362E362B4
:109D30002367E3666367A26600F06AFF084920466E
:109D400000F066FF2023A37110BD00BF003100208A
:109D5000D1C70200B8310020A8310020DAC70200C4
:109D6000DEC70200F8B5184C182300FB033503FBCF
:109D700000402544C46A012C0F46164611D024B178
:109D8000022C1BD000242046F8BD2846FFF768FFB0
:109D9000B042F8D3324639462846FFF76FFF3446C3
:109DA000F1E72846FFF75CFF8642344628BF0446A9
:109DB000224639462846FFF761FFE4E72846BDE81A
:109DC000F840FFF775BF00BF00310020F8B50B4B1E
:109DD0001B7805460E4617460BB9FFF793FFEFF3C6
:109DE00011844FF0200181F311883A46314628460C
:109DF000FFF7B8FF84F31188F8BD00BF00310020E1
:109E00000FB410B5A2B024AB802153F8042B0193FA
:109E100002A800F093FE802804460ADD802202A9F1
:109E20000020FFF7D3FF204622B0BDE8104004B069
:109E300070470028F7DD0246F1E700004FF07F4C45
:109E400090EA010F3ED4431A3CBFC01AC918BCEBBC
:109E5000400F78D91CEA410F2BD0C20DB2EBD15381
:109E6000182BC8BF70474FF0004C4CEA00204CEA5A
:109E70000121C3F1200C01FA0CFC31FA03F1401866
:109E800032BF013A5FEA300040F001005CEA406C0A
:109E900004BF10F4807F20F08000000A40EBC25025
:109EA0004FF0807111EB400F38BF7047C00DC005F7
:109EB00070471CEA400F08BF00F00040704700F0F8
:109EC0000040704781F00041431A3EBF83F00043D9
:109ED000C01AC918BCEB400F32D91CEA410F28D078
:109EE000C20DA2EBD1534FF0004C4CEA01214CEAD9
:109EF0000020C3F1200C11FA0CFC21FA03F118BF69
:109F000041F00101401A09D417D0130AD2B2B0FAB5
:109F100080F18840521A11DD02EB0322C0F31621B2
:109F2000400641EBC25038BF704708BF20F0010027
:109F300070471CEA400F08BF00207047D8077047E1
:109F4000BCEB410F03D0BCEB400F08BF70474FF094
:109F5000FE4040F44000704730B591EA030F00F135
:109F60008480841A71EB030C05D2121953EB0C0395
:109F7000001B71EB0C0140F2000CCFF6E07C1CEAF8
:109F8000430F54D0BCEB410F61D90C0DA4EB135E11
:109F900031EA0C0141F4801133EA0C0343F48013DD
:109FA000DEF1200C2AD303FA0CF5401941F100012F
:109FB00022FA0EF5401923FA0EF5694112FA0CF255
:109FC000CD0208D349085FEA30005FEA320228BFB9
:109FD00042F001020134013C5FEA500C72F1004290
:109FE00050F1000051EB04514FF4001313EB410FFB
:109FF00038BF30BD090D0905002030BDBEF1200E6F
:10A00000BEF1200F1ED223FA0EF5401941F10001D6
:10A01000CEF1200C124218BF012203FA0CF52A439C
:10A02000CEE711EA5C0F04BF0020002130BD1CEA1E
:10A03000410F04BF01F00041002030BD01F000419C
:10A04000002030BD21F4801101EB045130BD0042ED
:10A0500018BF41F00101BCEB410F08BF30BD4FF00C
:10A06000FE4141F47801002030BD83F00043841AA2
:10A0700071EB030E07D28EF0004E001B71EB0E0148
:10A08000121953EB0E0340F2000CCFF6E07C1CEAF1
:10A09000430FC6D0BCEB410F72D90C0DA4EB135E7D
:10A0A000C90241EA5051C00241F00041DB0243EADB
:10A0B0005253D20243F00043DEF1200C41D312FA96
:10A0C0000CF522FA0EF203FA0CF542EA050218BF6B
:10A0D00042F0010223FA0EF3801A9941E30AC4F315
:10A0E0000A0411F0404F03D418D0013C400049410C
:10A0F000013C23D44205C00A40EA4150C90A51EA52
:10A10000C3715FEA500C72F1004250F1000051EB54
:10A11000045130BD01002FD00020203C0029F9D08F
:10A12000B1FA81FCDCF1200E11FA0CF130FA0EF5D7
:10A1300010FA0CF02943A4EB0C04D9E70020D9074E
:10A1400030BDAEF1200EBEF1200F0DD2CEF1200CAD
:10A1500003FA0CF533FA0EF32A4318BF43F0010358
:10A16000C01A61F10001B9E721F00041C00A40EADC
:10A170004150C90A01EB045130BD0020002130BD1F
:10A18000004218BF41F00101BCEB410F7FF467AF03
:10A19000BCEB430F3FF463AF30BD00BF81F0004123
:10A1A000FFF74CBE4FF0FF0C1CEAD0521EBF1CEA5A
:10A1B000D153FF2AFF2B28D01A444FF0004C90EACD
:10A1C000010313EA0C034CEA01214CEA0020A0FB36
:10A1D00001C1B1F1004F62F17F0238BF49004CEA82
:10A1E000416CFE2A09D253EA11204CEAC07C28BFF8
:10A1F000BCF1010340EBC2507047124244BF184605
:10A200007047FF2043EAC050704710EACC5F08BF98
:10A2100000F0004011EACC5F08BF01F000410CEAF9
:10A22000D153FF2A18BFFF2B03D0484000F0004055
:10A23000704700281EBFB0F1004F0029B1F1004F58
:10A2400011D0FF2A02D15FEA402C0CD1FF2B02D1A2
:10A250005FEA412C07D1484000F0004040F0FE404A
:10A2600040F4000070474FF0FE4040F4400070475B
:10A27000F0B540F2FF7681EA030C16EA115E1EBFCC
:10A28000B64516EA1355B5425AD021EA465141F473
:10A290008011A1FB024723EA465343F48013AE44E6
:10A2A000A0FB03650CF0004C36197D41A1FB034770
:10A2B00047F10003A0FB0217F619654153F10003B3
:10A2C000094218BF46F0010640F2FE74B3F5007F64
:10A2D00013D2AEF5806EA6452BD24CEA033128038B
:10A2E00041EA155140EA16503203450872F1004226
:10A2F00050F1000051EB0E51F0BDAEF2FF3EA6450D
:10A3000017D24CEAC321E80241EA555140EA5650BF
:10A31000F202450872F1004250F1000051EB0E517B
:10A32000F0BD0CF0004141F0FE4141F4700100200D
:10A33000F0BD1EEA0E0FF4D50CF000410020F0BD78
:10A3400016EA115F04BF01F000410020004218BF6F
:10A3500041F0010116EA135F04BF03F0004300223D
:10A36000124218BF43F0010306EA1354B44218BF67
:10A370009EEA060F03D00CF000410020F0BD21F052
:10A38000004123F00043B1EB065F06D8B3EB065F54
:10A3900003D8002918BF002BC3D140F20001C7F633
:10A3A000F8710020F0BD00BFFF2313EAD0521EBF9A
:10A3B00013EAD153FF2AFF2B36D0D21A7F3281EA1B
:10A3C000000C0CF0004C4FF0004343EA002043EA3D
:10A3D000012130B4431A3CBF01EB4303013A090A9F
:10A3E000B3FBF1F505FB11331B02B3FBF1F001FBED
:10A3F000103300EB05201B02B3FBF1F505EB002049
:10A400005CEA500050EBC25030BC002A09DDFF2A44
:10A4100038BF70474FF07F400CF0004C4CEA5000C2
:10A4200070470CF00040704703EAD15393F0FF0FE0
:10A4300008D192F0FF0F1BD05FEA412C14D04FF4EB
:10A4400040001DE092F0FF0F05D14FF07F43B3EBCA
:10A45000400F10D00CD193F0000F08BF92F0000F06
:10A4600006D093F0000F06D0484000F0004070473F
:10A470004FF4400004E0484000F0004040F4000089
:10A4800040F0FE40704700BF2DE9F04391EA030E13
:10A490000EF0004E40F20007CFF6E07717EA4105D4
:10A4A0001EBF95EA070F17EA430595EA070F00F06C
:10A4B000A1807F0D17EA135623EA475343F4801314
:10A4C00017EA115521EA475141F48011AD1B05F2FD
:10A4D000FD354FEAD31C1CF1010C4FF00047B7FBD0
:10A4E000FCF77F01A2FB079C0024E3FB07C4DCF11F
:10A4F000000CD9F100097CF1000CA0FB07620020E0
:10A50000E1FB072000275FEAC628E0FB0987760DFC
:10A5100046EAC226520DF61900277A41E0FB0C628A
:10A520005FEAC823E2FB09375FEA585848EAC628C1
:10A53000760D18EB070800214E41E2FB0C8602EB7A
:10A54000C020DA02E6FB09215B0D43EAC8235FEA7B
:10A5500058585B18002758EB0708E6FB0C38D10267
:10A56000E8FB0917520D42EAC3225B0DD2190027FE
:10A570007B41E8FB0C2308EBC6265FEAC128E3FB1E
:10A580000987490D41EAC221520DC91942F1000261
:10A59000E3FB0C12470019EB08095CEB010C72EBB2
:10A5A000040453EBC62047EB56530026B3F5000FC7
:10A5B0007641AD190236D6F1200910FA09F4F040BF
:10A5C00013FA09F21043F340E40F001943F10003BA
:10A5D000B3F5001F24BF5B08013540F2FE77BD4292
:10A5E00004D24EEA05511944BDE8F0832D4224D52A
:10A5F000714626E0004218BF41F00101124218BF27
:10A6000043F00103B7EB410F2CBFB7EB430F1BE047
:10A61000B7EB410F04BFB7EB430F15E017EA410F4B
:10A6200004BF17EA430F0FE017EA410FE0D017EA23
:10A63000430F02D0B7EB430FDAD04EF0FE4141F4A6
:10A6400070010020BDE8F08340F20001C7F6F87108
:10A65000F7E700BF42004B0012F1807F94BF13F177
:10A66000807F0CE050EA010252000AD003D28142FE
:10A67000804101307047884280410130704700209E
:10A6800070470120704700BF50EA0102520007D016
:10A69000884203D1400010F1807F01D9002070472B
:10A6A0000120704742004B0012F1807F94BF13F1EC
:10A6B000807F0CE050EA010252000AD003D28842A7
:10A6C0008041013070478142804101307047002055
:10A6D00070470120704700BF42004B0012F1807F9D
:10A6E00094BF13F1807F0CE050EA0102520008D0C1
:10A6F00003D28142804140427047884280414042BB
:10A7000070470020704700BF42004B0012F1807F6D
:10A7100094BF13F1807F0CE050EA0102520008D090
:10A7200003D288428041404270478142804140428A
:10A7300070470020704700BFC10DD1F19E0105DBBD
:10A74000000240F0004020FA01F070474000404015
:10A7500038BF0138704700BF0B0D40F21E42D21ABD
:10A7600007DBCB0243EA505040F0004030FA02F0E1
:10A770007047490060EB0000704700BF10F00041D7
:10A7800018BF4042B0FA80F210FA02F30DD0D2F1B5
:10A790009D0241EAC25101EB13205A0638BF7047AF
:10A7A00000F1010008BF20F001007047B0FA80F10D
:10A7B00010FA01F30DD0D1F19D01C90501EB132071
:10A7C0005B0638BF704700F1010018BF704720F0EA
:10A7D00001007047C0F3C75191B142004FEA407089
:10A7E0004FEAD2014FEA310101F16051B2F17F4FDE
:10A7F00038BF704701F1605118BF41F40021704724
:10A8000010F000410020704701F000428B1AA3F1C4
:10A810006051B1F5801F0ADBB1F17F6F09D242EAC6
:10A82000C102C10071F1004142EB50707047104607
:10A83000704701285B4113F5001F04D842F0FE4029
:10A8400040F400007047C90041EA507040EA02003D
:10A8500040F4800040F08040704700BF4FEA400065
:10A86000B0F17F4F0CBF0120002070474100002055
:10A87000B1F17F4F18BF50EB0000704700F000406F
:10A88000704700BF20F00040704700BF4FF07F438B
:10A89000B3EB400F22D9410008BF704703EA4002E2
:10A8A000120E7F3A14DB172AA8BF70474FF6FF73CA
:10A8B000C0F27F03D340184220EA030018BF10F013
:10A8C000004F08BF70474FF40001D1404018704757
:10A8D00010F0004F0CBF00200248704718BF02481C
:10A8E00070470000000080BF0000C07F4FF07F4332
:10A8F000B3EB400F98BF704713EA400207D0120E27
:10A900007E3A0A6020EA530040F07C5070470A60AB
:10A9100000F00040704700BF4FF07F43B3EB400FA3
:10A9200098BF704713EA400204BF00F00040704730
:10A9300011EB1262DCBF00F000407047FF2A3CBF01
:10A9400000EBC150704740004FEA3300704700BF32
:10A9500053EA020C61D02DE9F04BB3FA83F51E00E7
:10A9600007BFB2FA82F502FA05F403FA05F41646B7
:10A97000C5F120051EBF22FA05F73C43203556EAF3
:10A98000044C4FEA144418BF0134A3464FF00009A9
:10A99000C846904271EB030C39D3094207BFB0FAA5
:10A9A00080F700FA07F6B1FA81F701FA07F6C7F166
:10A9B00020071EBF20FA07FC46EA0C062037B6FB2C
:10A9C000FBFC7F1B103F07F01F04C4F120060CFAAC
:10A9D00004F42CFA06F644BF34460026202FA4BF08
:10A9E0002646002454EA060C08BF012418EB04088C
:10A9F00049EB0609A4FB027CC01B06FB02CC04FB4E
:10AA000003CC71EB0C01904271EB030CC5D20B46E9
:10AA1000024649464046BDE8F08BB2FBF3F2000027
:10AA200070B5041E06DB002C19DD00264FF07E50A9
:10AA30000C4D06E064420126F8E764100435002C52
:10AA400006DD14F0010FF8D02968FFF7ABFBF4E73F
:10AA500026B101464FF07E50FFF7A6FC70BD4FF0C7
:10AA60007E50FBE70CC8020038B504460846A268D1
:10AA700042B1236861685D1C8D4208BF00208B4293
:10AA800008D2D054E3682BB121686268914201D2A8
:10AA90002146984723680133236038BD70B54C1EAA
:10AAA00009D41646C5B229463046FFF7DDFF013C02
:10AAB000B4F1FF3FF7D170BD10F0100F09D108B508
:10AAC00000F40070002814BF30202020FFF7E6FFBC
:10AAD00008BD70470028B8BF4042704700B5FBF77B
:10AAE0006FFC024B18445DF804FB00BF0800000037
:10AAF0000EB400B586B007AA52F8041B0592039065
:10AB0000002304936FF00043029301A800F0D2F8F1
:10AB100006B05DF804EB03B07047037853B159B148
:10AB20000144034613F8012F12B18B42FAD10B46B0
:10AB3000181A70470346FBE70346F9E710B584B0DF
:10AB4000144602900022039201911A46214668465B
:10AB500000F0B0F804B010BD844640EA010313F0E1
:10AB6000030F18D18446202A0BD32DE9F007B1E852
:10AB7000F807A0E8F807A2F12002202AF7D2BDE8E2
:10AB8000F007042A07D351F8043B40F8043BA2F134
:10AB90000402042AF7D2002A05D011F8013B00F87C
:10ABA000013B013AF9D1604670478446002A2DD016
:10ABB00010F0030F04D000F8011B013A26D0F7E78C
:10ABC000C9B241EA012141EA0141202A12D3A2F18E
:10ABD00020022DE9F0030B460C460D460E460F46AB
:10ABE00088468946A0E8FA03203AFBD2BDE8F00384
:10ABF00020320BD0042A05D340F8041B043A05D0B8
:10AC0000042AF9D200F8011B013AFBD160467047D3
:10AC1000024610F0030F16D111F0030F13D12DE9E6
:10AC2000F0004FF001374FF0803351F8044BA4EBA4
:10AC3000070525EA04051D4002D142F8044BF4E75C
:10AC4000A1F10401F0BC11F8013B02F8013B002B1B
:10AC5000F9D1704700F1010110F0030F11D010F885
:10AC6000012B002A23D010F0030F0AD010F8012B7B
:10AC7000002A1CD010F0030F03D010F8012B002A7B
:10AC800015D02DE970004FF001324FF0803350F8AD
:10AC9000044BA4EB020525EA04051D4000D1F6E7AC
:10ACA000A0F1040070BC10F8012B002AFBD1A0EB2E
:10ACB000010070472DE9F04F8DB081460391079256
:10ACC00000230360039D15F8011B002900F0158780
:10ACD000252904D04846FFF7C7FE0395F2E7002672
:10ACE00002E046F0400625462C4614F8010BA0F180
:10ACF00020033E2B00F2948001A252F823F000BF03
:10AD0000E3AC020021AE020021AE0200FDAD020064
:10AD100021AE020021AE020021AE020003AE02000D
:10AD200021AE020021AE020021AE02000FAE0200F1
:10AD300021AE020015AE020021AE020021AE0200DB
:10AD40001BAE020021AE020021AE020021AE0200C5
:10AD500021AE020021AE020021AE020021AE0200AF
:10AD600021AE020021AE020021AE020021AE02009F
:10AD700021AE020021AE020021AE020021AE02008F
:10AD800021AE020021AE020021AE020021AE02007F
:10AD900021AE020021AE020021AE020021AE02006F
:10ADA00021AE020021AE020021AE020021AE02005F
:10ADB00021AE020021AE020021AE020021AE02004F
:10ADC00021AE020021AE020021AE020021AE02003F
:10ADD00021AE020021AE020021AE020021AE02002F
:10ADE00021AE020021AE020021AE020021AE02001F
:10ADF00021AE020021AE020009AE020046F080063C
:10AE000071E746F400466EE746F480566BE746F07D
:10AE1000200668E746F0100665E746F4007662E72C
:10AE20002A281ED1079B1A1D07921B68002BBCBF46
:10AE30005B4246F010062078AC1C23EAE37A2E2809
:10AE400024D00025742845D07A2843D06C2800F0FF
:10AE5000C3804C2800F0C780682800F0D480039499
:10AE60003CE0A0F13003DBB2092B88BF0023E4D81B
:10AE7000002303EB8303303800EB430314F8010B8A
:10AE8000A0F13002D2B2092AF3D9D6E720782A28D5
:10AE90000AD1079B1A1D07921D6860780234002DA5
:10AEA000D0DB46F48076CDE70134A0F13003DBB28D
:10AEB000092B88BF0025F4D8002505EB850530381F
:10AEC00000EB450514F8010BA0F13003DBB2092BB0
:10AED000F3D9E4E7234613F8010B0393782800F233
:10AEE000A080DFE810F01A069E009E009E009E00E3
:10AEF0009E009E009E009E009E009E009E009E0062
:10AF00009E009E009E009E009E009E009E009E0051
:10AF10009E009E009E009E009E009E009E009E0041
:10AF20009E009E009E009E009E009E009E009E0031
:10AF3000A0009E009E009E009E009E009E009E001F
:10AF40009E009E009E009E009E009E009E009E0011
:10AF50009E009E009E009E009E009E009E009E0001
:10AF60009E009E009E009E009E009E009E009E00F1
:10AF7000C201DE01E3019E009E009E009E009E0035
:10AF80009E009E009E009E009E009E009E009E00D1
:10AF90009E009E009E001A019E009E009E009E0044
:10AFA0009E009E009E009E009E009E00A5005001F7
:10AFB000C401E001E5019E0050019E009E009E003C
:10AFC0009E00B5003D01FF009E009E00C8009E004F
:10AFD00049019E009E001C01234613F8010B0393B8
:10AFE00046F001067AE746F00106B34B1F68002FD2
:10AFF00000F0808507AB01930095534632464946E1
:10B00000B84703945EE62078682804D0631C039355
:10B0100046F0040662E746F00806A31C0393607836
:10B020005CE7039CE1E725214846FFF71DFD49E663
:10B03000079B1A1D07921C780AF1FF3A4A465146AF
:10B040003046FFF739FD21464846FFF70DFD3AE04F
:10B0500016F0080F07D0D9F80020079B191D07919B
:10B060001B681A702EE6079B1A1D07921B68D9F8F9
:10B0700000201A6026E6079B1A1D07921F683346B8
:10B080008E4A002F08BF174623F4007613F4807F02
:10B0900023D029463846FFF740FD0546AAEB050AAE
:10B0A0004A4651463046FFF707FD05F1FF3B55B1D3
:10B0B0003C463D4414F8011B4846FFF7D5FCA54229
:10B0C000F8D14FF0FF3B16F0100F3FF4FBAD4A46AE
:10B0D00051462020FFF7E2FCF4E53846FFF7BAFDC1
:10B0E0000546DBE7079B1A1D07921B6806F08002E6
:10B0F000002A0CBF0027232746F4807608251A462D
:10B10000002B00F0C68408AB002406F40050DFF8E2
:10B11000B0E1DFF8B0C100F095BC46F4005616F07F
:10B12000800F07D043F2780743F25803782818BFFE
:10B130001F4600E0002716F4807F01D026F4007639
:10B1400016F4804F32D0079B1A1D07921B6816F029
:10B15000040F1ED01BB2002B1FDA5B422D272DE0FF
:10B1600006F08003002B0CBF0027302716F4807FE9
:10B17000E6D026F40076E3E716F4807F07D026F4C5
:10B1800000760027DCE746F480460027D8E7002752
:10B19000D6E716F0080FDED0DBB216F0200F62D132
:10B1A00006F04002002A18BF202707E0079B1A1D5F
:10B1B00007921B6816F0040F50D09BB216F4807FE4
:10B1C00000F0FE8326F400765838202800F25F84D1
:10B1D00001A252F820F000BFFFB002008FBA0200B7
:10B1E0008FBA02008FBA02008FBA02008FBA020033
:10B1F0008FBA02008FBA02008FBA02008FBA020023
:10B200008FBA02008FBA020015BA02008FBA02008C
:10B210008FBA02008FBA02008FBA020015BA02007C
:10B220008FBA02008FBA02008FBA02008FBA0200F2
:10B230008FBA0200C5B90200FFB002008FBA020047
:10B240008FBA02008FBA02008FBA020015BA02004C
:10B250008FBA02008FBA0200FFB0020016F0080F8A
:10B26000ACD0DBB2AAE72B27A8E746F4005646F499
:10B270008066079B073323F0070303F10802079258
:10B28000D3E90001FFF7C0FA044616F4807F1BD013
:10B29000DDB906F44065B5F5406F14BF0025012502
:10B2A00013E046F4005646F40066E2E746F4005622
:10B2B00046F44066DDE700BFB83500204CC8020008
:10B2C000E8C70200F8C7020006252046FFF7C6FAC5
:10B2D000002840F0BC802046FFF7C8FA05900028FF
:10B2E00040F0D0802046FFF7C9FA18B146F060065A
:10B2F00004F100440BA92046FFF7F8FA0B9B03EB7F
:10B300004303A74A82FB0312DB17C3EBA2030B9391
:10B3100000212046FFF7B8F9002800F0C08006F4AD
:10B320004068B8F5806F0AD0B8F5406F40F08B8167
:10B330000B9BAB4203DA13F1040F80F284810B986C
:10B340004042FFF76DFB01462046FEF72BFF074604
:10B3500004460021FFF798F9002834D13846FFF75A
:10B360007DFA002840F0B3808E493846FFF79AF9FD
:10B3700080B10B9C013404948A493846FFF714F8D5
:10B38000074601348749FFF78DF90028F3D13C4681
:10B39000049B0B9327464FF07E512046FFF7B4F9EC
:10B3A00088B10B9C013C04947E493846FEF7FAFEB6
:10B3B0000746013C4FF07E51FFF7A6F90028F2D175
:10B3C0003C46049B0B9325B1B8F5406F08BF05F1CF
:10B3D000FF356842FFF724FB4FF07C51FEF7E2FE99
:10B3E0002146FEF72BFD04466E49FFF75BF938B1A5
:10B3F0000B9B01330B936B492046FEF7D5FF0446A8
:10B40000002D00F08C8006F40863B3F5006F79D04E
:10B4100026F40063049305F10508AAEB080808F177
:10B42000FF3816F4805F00F0D1800B9F5E4B83FBEA
:10B430000723A3EBE77303EB4303FB1A0233042B4D
:10B4400000F2AB80DFE803F0939E8F939E00002113
:10B450002046FFF759F968B906F40053534F544A90
:10B46000002B08BF174616F0200F08BF013726F43F
:10B47000807305E606F400534E4F4F4A002B08BF79
:10B480001746F4E706F400524C4F4D4B002A08BF14
:10B490001F4626F48073F7E50B9B01330B930B9843
:10B4A0000130FFF7BDFA01462046FFF715F90028E5
:10B4B000F2D102E00B9B013B0B930B98FFF7B0FA24
:10B4C00001462046FFF720F90028F3D127E70021A5
:10B4D0003846FFF719F968B906F40053334F344A78
:10B4E000002B08BF174616F0200F08BF013726F4BF
:10B4F0008073C5E506F400532E4F2F4A002B08BF7A
:10B500001746F4E7092DA8BF09252846FFF788FA52
:10B510002146FEF747FEFFF70FF9024650B926F421
:10B5200000630493AAF1050816F080053FF479AF93
:10B53000059D74E7234BA3FB0013DB0803EB830398
:10B54000B0EB430F7FF464AF1E49A1FB0232D20877
:10B55000013DE4D0A1FB0203DB0803EB8303B2EB64
:10B56000430FF2D054E7012725EAE5752FE00D4996
:10B570002046FEF717FE0446013F0B9708F1FF38FF
:10B580000227F1E710492046FEF70CFE0446023F71
:10B590000B97A8F102080327E6E75F46E4E700BF40
:10B5A00067666666000020415655555534C802004E
:10B5B0003CC8020024C802002CC8020044C8020093
:10B5C00048C80200CDCCCCCC0000C842012716F000
:10B5D000600F18BF08F1FF380B98FFF77BFA63285C
:10B5E000C8BF08F1FF3826462046FFF7A5F80446F5
:10B5F000FFF7DCF801463046FEF7D0FD069028EA5A
:10B60000E87B049B13F4047F00F0BB80049B13F0E1
:10B61000200F00F0C78003F04003002B14BF2D2142
:10B620002B214846FFF720FA049B13F0100F00F07F
:10B63000C380BC4B07F10056013E03EBC60698469B
:10B640004FF0300AD1E016F4806F28D00B9B0E2B00
:10B6500024DC0133EF1A092FA8BF092716F0800F49
:10B6600001D03D461BE0AB4270D03846FFF7D8F919
:10B6700001462046FEF796FD4FF07C51FEF7DEFBBB
:10B68000FFF704F9A84900F08BFA0021FEF7FCFF50
:10B6900000285DD0013FE8D13D4600E0059D26F43D
:10B6A000806304930B9B6842A3F108028242C8BFE7
:10B6B000A3F10900FFF7B4F94FF0FF31FFF72CF9C0
:10B6C00001462046FEF7BAFB0690069F0B98013014
:10B6D000FFF7A6F901463846FEF7FEFF10B10B9BB7
:10B6E00001330B930B98002845DB092832DC3846E0
:10B6F000FFF722F80446FFF759F801463846FEF7EF
:10B700004DFD069000230B9320460021002908BF21
:10B710000A2C34D3DFF818C201270137FCE90223D1
:10B72000994208BF9042F8D205EB07080B9B98445A
:10B73000AAEB080806F080032B4318BF08F1FF3876
:10B7400016F0600F18BF08F1FF3858E73D46A6E72E
:10B750003D46A4E7A0F109030B93C0F10900FFF7F0
:10B760005FF901463846FEF71DFDFEF7E5FF04468A
:10B77000059B0693C8E700240B940127D4E7012713
:10B78000D2E7B8F1000F7FF741AF2026A0465C4614
:10B79000013C31464846FFF767F9002CF8D1A34633
:10B7A000444633E7049B13F0400F3FF43DAF2021A4
:10B7B0004846FFF759F937E7BBF1000F3FF439AFBF
:10B7C0003026A0465C46013C31464846FFF74CF91E
:10B7D000002CF8D1A34644462BE7D44661464846A0
:10B7E000FFF742F9464514D03E46374677E8022334
:10B7F0000021994208BF9442EFD3D4460CF1010CCA
:10B800005FFA8CFCA41A0021994208BF9442F5D239
:10B81000E4E7049B13F400644BD1002D57D1049B43
:10B8200013F0800F40F07C81049B13F4806F30D0C4
:10B8300003F40053002B14BF452165214846FFF750
:10B8400013F90B9B002BC0F29D802B214846FFF77C
:10B850000BF90B99632900F39D800B99334C84FB02
:10B860000132C917C1EBA2013031C9B24846FFF716
:10B87000FBF80B9B84FB0312D917C1EBA20101EB70
:10B880008101A3EB410303F13001C9B24846FFF740
:10B89000EBF8BBF1000F3FF415AA20245D46013DF3
:10B8A00021464846FFF7E0F8002DF8D1AB46FFF7F8
:10B8B00009BA0B9B002BB0DD3026013B0B933146C0
:10B8C0004846FFF7D1F80B9B002BF6DCA5E72E21AD
:10B8D0004846FFF7C9F82E46092DA8BF092626EAD3
:10B8E000E676AD1B9CB10B98301AFFF799F80699D4
:10B8F000FEF758FCFEF720FF0446AEB306F10056F3
:10B90000013E084F07EBC6074FF0300A13E0304600
:10B91000FFF786F80699FEF745FCFEF70DFF044693
:10B92000EBE700BF58C8020000002041676666666A
:10B9300060C8020037463E4676E80223002199425D
:10B9400008BF94421CD3D4460CF1010C5FFA8CFC66
:10B95000A41A0021994208BF9442F5D26146484694
:10B96000FFF782F84745E5D1002D3FF45DAF302465
:10B97000013D21464846FFF777F8002DF8D153E7FF
:10B98000D446EBE72D214846FFF76EF80B9B5B4250
:10B990000B935EE76E4C84FB0132C917C1EB621159
:10B9A0003031C9B24846FFF75FF80B9A84FB023189
:10B9B000D317C3EB6113642101FB13230B934CE7F3
:10B9C000012501E41A4600245BB108A9002403F014
:10B9D0000703303301F8013B0134D2081346002A33
:10B9E000F5D12D1B25EAE575AAEB0508A8EB04089F
:10B9F000FF2F50D9A8F1020816F4007F00F09B80B9
:10BA0000C7F307214846FFF72FF8F9B24846FFF77A
:10BA10002BF845E019460024002BE2D0002406F460
:10BA2000004E4FF02C08DFF82CC17346AE461D4681
:10BA30001FE002F00F011EF8011003F8011B013492
:10BA40001209CED00028F4D002F00F011CF801102A
:10BA5000F3E70CAB1819ACFB0132D20802EB8203FE
:10BA6000A1EB4303303300F8103C013409290CD911
:10BA70001146002DEDD004F00303032BE9D10CABEC
:10BA8000234403F8108C0134E3E77546A9E700244A
:10BA9000A7E70024A5E7002F48D116F4007F4AD07D
:10BAA0004A4641463046FFF707F84A4629463020C5
:10BAB000FEF7F4FFB4F1010B11D408AF5D463D442D
:10BAC00003E04FF000089BE725462C4614F80119C7
:10BAD0004846FEF7C9FFAF42F6D14FF0FF3B16F0E4
